{
  "contractName": "Faucet",
  "abi": [
    {
      "stateMutability": "payable",
      "type": "receive",
      "payable": true
    },
    {
      "inputs": [],
      "name": "addFunds",
      "outputs": [],
      "stateMutability": "payable",
      "type": "function",
      "payable": true
    },
    {
      "inputs": [],
      "name": "withdraw",
      "outputs": [],
      "stateMutability": "nonpayable",
      "type": "function"
    },
    {
      "inputs": [],
      "name": "faucetBalance",
      "outputs": [
        {
          "internalType": "uint256",
          "name": "",
          "type": "uint256"
        }
      ],
      "stateMutability": "view",
      "type": "function",
      "constant": true
    },
    {
      "inputs": [
        {
          "internalType": "uint256",
          "name": "_index",
          "type": "uint256"
        }
      ],
      "name": "funderByIndex",
      "outputs": [
        {
          "internalType": "address",
          "name": "",
          "type": "address"
        }
      ],
      "stateMutability": "view",
      "type": "function",
      "constant": true
    },
    {
      "inputs": [],
      "name": "getAllFunders",
      "outputs": [
        {
          "internalType": "address[]",
          "name": "",
          "type": "address[]"
        }
      ],
      "stateMutability": "view",
      "type": "function",
      "constant": true
    }
  ],
  "bytecode": "0x60806040526706f05b59d3b2000060025534801561001c57600080fd5b506106a18061002c6000396000f3fe60806040526004361061004e5760003560e01c80631720f5d21461005a5780633ccfd60b146100855780636fbbb55d1461009c578063a26759cb146100c7578063d66ebe96146100d157610055565b3661005557005b600080fd5b34801561006657600080fd5b5061006f61010e565b60405161007c9190610363565b60405180910390f35b34801561009157600080fd5b5061009a610116565b005b3480156100a857600080fd5b506100b16101a5565b6040516100be919061046e565b60405180910390f35b6100cf61029e565b005b3480156100dd57600080fd5b506100f860048036038101906100f391906104c1565b61030d565b60405161010591906104fd565b60405180910390f35b600047905090565b600047141561015a576040517f08c379a000000000000000000000000000000000000000000000000000000000815260040161015190610575565b60405180910390fd5b3373ffffffffffffffffffffffffffffffffffffffff166108fc6002549081150290604051600060405180830381858888f193505050501580156101a2573d6000803e3d6000fd5b50565b60606000805467ffffffffffffffff8111156101c4576101c3610595565b5b6040519080825280602002602001820160405280156101f25781602001602082028036833780820191505090505b50905060005b600054811015610296576001600082815260200190815260200160002060009054906101000a900473ffffffffffffffffffffffffffffffffffffffff16828281518110610249576102486105c4565b5b602002602001019073ffffffffffffffffffffffffffffffffffffffff16908173ffffffffffffffffffffffffffffffffffffffff1681525050808061028e90610622565b9150506101f8565b508091505090565b60008060008154809291906102b290610622565b919050559050336001600083815260200190815260200160002060006101000a81548173ffffffffffffffffffffffffffffffffffffffff021916908373ffffffffffffffffffffffffffffffffffffffff16021790555050565b60006001600083815260200190815260200160002060009054906101000a900473ffffffffffffffffffffffffffffffffffffffff169050919050565b6000819050919050565b61035d8161034a565b82525050565b60006020820190506103786000830184610354565b92915050565b600081519050919050565b600082825260208201905092915050565b6000819050602082019050919050565b600073ffffffffffffffffffffffffffffffffffffffff82169050919050565b60006103d5826103aa565b9050919050565b6103e5816103ca565b82525050565b60006103f783836103dc565b60208301905092915050565b6000602082019050919050565b600061041b8261037e565b6104258185610389565b93506104308361039a565b8060005b8381101561046157815161044888826103eb565b975061045383610403565b925050600181019050610434565b5085935050505092915050565b600060208201905081810360008301526104888184610410565b905092915050565b600080fd5b61049e8161034a565b81146104a957600080fd5b50565b6000813590506104bb81610495565b92915050565b6000602082840312156104d7576104d6610490565b5b60006104e5848285016104ac565b91505092915050565b6104f7816103ca565b82525050565b600060208201905061051260008301846104ee565b92915050565b600082825260208201905092915050565b7f6661756365742062616c616e636520656d707479000000000000000000000000600082015250565b600061055f601483610518565b915061056a82610529565b602082019050919050565b6000602082019050818103600083015261058e81610552565b9050919050565b7f4e487b7100000000000000000000000000000000000000000000000000000000600052604160045260246000fd5b7f4e487b7100000000000000000000000000000000000000000000000000000000600052603260045260246000fd5b7f4e487b7100000000000000000000000000000000000000000000000000000000600052601160045260246000fd5b600061062d8261034a565b91507fffffffffffffffffffffffffffffffffffffffffffffffffffffffffffffffff8214156106605761065f6105f3565b5b60018201905091905056fea26469706673582212208bc0083a2b1412a6e1372899a7409f65f2d299ef331eb1aaca6076efb124784364736f6c634300080a0033",
  "immutableReferences": {},
  "source": "//SPDX-License-Identifier: Unlicense\npragma solidity ^0.8.0;\n\nimport \"./IFaucet.sol\";\n\ncontract Faucet is IFaucet {\n\n    uint256 private funderCount;\n    mapping(uint256 => address) private funders;\n    uint256 private defaultEth = 0.5 ether;\n\n    receive() external payable{}\n\n    function addFunds() external override payable {\n        uint256 index = funderCount++;\n        funders[index] = msg.sender;\n    }\n\n    function withdraw() external override {\n        require(address(this).balance != 0, 'faucet balance empty');\n        payable(msg.sender).transfer(defaultEth);\n    }\n\n    function faucetBalance() external view returns(uint256) {\n        return address(this).balance;\n    }\n\n    function funderByIndex(uint256 _index) external view returns(address) {\n        return funders[_index];\n    }\n\n    function getAllFunders() external view returns(address[] memory) {\n        address[] memory _funders = new address[](funderCount);\n        for (uint256 i = 0; i < funderCount; i++) \n        {\n            _funders[i] = funders[i];\n        }\n        return _funders;\n    }\n}",
  "sourcePath": "/Users/emmettchilds-gevero/Desktop/NextJS/running-water/contracts/Faucet.sol",
  "compiler": {
    "name": "solc",
    "version": "0.8.10+commit.fc410830.Emscripten.clang"
  },
  "schemaVersion": "3.4.4",
  "updatedAt": "2022-01-06T14:40:31.021Z",
  "networkType": "ethereum",
  "devdoc": {
    "kind": "dev",
    "methods": {},
    "version": 1
  },
  "userdoc": {
    "kind": "user",
    "methods": {},
    "version": 1
  }
}